{
  "_format": "hh-sol-artifact-1",
  "contractName": "SimpleStorage",
  "sourceName": "contracts/SimpleStorage.sol",
  "abi": [
    {
      "inputs": [
        {
          "internalType": "uint256",
          "name": "value",
          "type": "uint256"
        },
        {
          "internalType": "uint256",
          "name": "length",
          "type": "uint256"
        }
      ],
      "name": "StringsInsufficientHexLength",
      "type": "error"
    },
    {
      "anonymous": false,
      "inputs": [
        {
          "indexed": true,
          "internalType": "bytes32",
          "name": "hash",
          "type": "bytes32"
        },
        {
          "indexed": false,
          "internalType": "string",
          "name": "title",
          "type": "string"
        },
        {
          "indexed": false,
          "internalType": "string",
          "name": "owner",
          "type": "string"
        },
        {
          "indexed": false,
          "internalType": "uint256",
          "name": "timestamp",
          "type": "uint256"
        }
      ],
      "name": "IPRegistered",
      "type": "event"
    },
    {
      "anonymous": false,
      "inputs": [
        {
          "indexed": true,
          "internalType": "bytes32",
          "name": "hash",
          "type": "bytes32"
        },
        {
          "indexed": false,
          "internalType": "string",
          "name": "newOwner",
          "type": "string"
        }
      ],
      "name": "OwnershipTransferred",
      "type": "event"
    },
    {
      "inputs": [
        {
          "internalType": "bytes32",
          "name": "hash",
          "type": "bytes32"
        }
      ],
      "name": "getIPDetails",
      "outputs": [
        {
          "internalType": "string",
          "name": "",
          "type": "string"
        },
        {
          "internalType": "string",
          "name": "",
          "type": "string"
        },
        {
          "internalType": "uint256",
          "name": "",
          "type": "uint256"
        }
      ],
      "stateMutability": "view",
      "type": "function"
    },
    {
      "inputs": [
        {
          "internalType": "bytes32",
          "name": "",
          "type": "bytes32"
        }
      ],
      "name": "records",
      "outputs": [
        {
          "internalType": "string",
          "name": "title",
          "type": "string"
        },
        {
          "internalType": "string",
          "name": "owner",
          "type": "string"
        },
        {
          "internalType": "uint256",
          "name": "timestamp",
          "type": "uint256"
        }
      ],
      "stateMutability": "view",
      "type": "function"
    },
    {
      "inputs": [
        {
          "internalType": "string",
          "name": "title",
          "type": "string"
        },
        {
          "internalType": "string",
          "name": "owner",
          "type": "string"
        }
      ],
      "name": "registerIP",
      "outputs": [
        {
          "internalType": "bytes32",
          "name": "",
          "type": "bytes32"
        }
      ],
      "stateMutability": "nonpayable",
      "type": "function"
    },
    {
      "inputs": [
        {
          "internalType": "bytes32",
          "name": "hash",
          "type": "bytes32"
        },
        {
          "internalType": "string",
          "name": "newOwner",
          "type": "string"
        }
      ],
      "name": "transferOwnership",
      "outputs": [],
      "stateMutability": "nonpayable",
      "type": "function"
    }
  ],
  "bytecode": "0x608060405234801561001057600080fd5b5061148c806100206000396000f3fe608060405234801561001057600080fd5b506004361061004c5760003560e01c806301e647251461005157806329ccb493146100835780634e5451e4146100b3578063dce6320d146100cf575b600080fd5b61006b60048036038101906100669190610977565b610101565b60405161007a93929190610a4d565b60405180910390f35b61009d60048036038101906100989190610bc7565b61023b565b6040516100aa9190610c4e565b60405180910390f35b6100cd60048036038101906100c89190610c69565b61036f565b005b6100e960048036038101906100e49190610977565b61051f565b6040516100f893929190610a4d565b60405180910390f35b600060205280600052604060002060009150905080600001805461012490610cf4565b80601f016020809104026020016040519081016040528092919081815260200182805461015090610cf4565b801561019d5780601f106101725761010080835404028352916020019161019d565b820191906000526020600020905b81548152906001019060200180831161018057829003601f168201915b5050505050908060010180546101b290610cf4565b80601f01602080910402602001604051908101604052809291908181526020018280546101de90610cf4565b801561022b5780601f106102005761010080835404028352916020019161022b565b820191906000526020600020905b81548152906001019060200180831161020e57829003601f168201915b5050505050908060020154905083565b60008083834260405160200161025393929190610d82565b604051602081830303815290604052805190602001209050600080600083815260200190815260200160002060020154146102c3576040517f08c379a00000000000000000000000000000000000000000000000000000000081526004016102ba90610e03565b60405180910390fd5b60405180606001604052808581526020018481526020014281525060008083815260200190815260200160002060008201518160000190816103059190610fcf565b50602082015181600101908161031b9190610fcf565b5060408201518160020155905050807f4ed6f0f33aec8eacba7ac4cc70645b6b3092e5d3d3f83e5ce7b126d06749107f85854260405161035d93929190610a4d565b60405180910390a28091505092915050565b600080600084815260200190815260200160002060020154036103c7576040517f08c379a00000000000000000000000000000000000000000000000000000000081526004016103be906110ed565b60405180910390fd5b336040516020016103d89190611187565b604051602081830303815290604052805190602001206000808481526020019081526020016000206001016040516020016104139190611225565b60405160208183030381529060405280519060200120146104c05761044f3373ffffffffffffffffffffffffffffffffffffffff1660146106e7565b6000808481526020019081526020016000206001016040516020016104759291906112d4565b6040516020818303038152906040526040517f08c379a00000000000000000000000000000000000000000000000000000000081526004016104b7919061130e565b60405180910390fd5b8060008084815260200190815260200160002060010190816104e29190610fcf565b50817f05bd9fe2ee66726463353de3d126251385f134096526cb94b375eed390b90eda82604051610513919061130e565b60405180910390a25050565b606080600080600080868152602001908152602001600020600201540361057b576040517f08c379a0000000000000000000000000000000000000000000000000000000008152600401610572906110ed565b60405180910390fd5b60008060008681526020019081526020016000206040518060600160405290816000820180546105aa90610cf4565b80601f01602080910402602001604051908101604052809291908181526020018280546105d690610cf4565b80156106235780601f106105f857610100808354040283529160200191610623565b820191906000526020600020905b81548152906001019060200180831161060657829003601f168201915b5050505050815260200160018201805461063c90610cf4565b80601f016020809104026020016040519081016040528092919081815260200182805461066890610cf4565b80156106b55780601f1061068a576101008083540402835291602001916106b5565b820191906000526020600020905b81548152906001019060200180831161069857829003601f168201915b505050505081526020016002820154815250509050806000015181602001518260400151935093509350509193909250565b60606000839050600060028460026106ff919061135f565b61070991906113a1565b67ffffffffffffffff81111561072257610721610a9c565b5b6040519080825280601f01601f1916602001820160405280156107545781602001600182028036833780820191505090505b5090507f30000000000000000000000000000000000000000000000000000000000000008160008151811061078c5761078b6113d5565b5b60200101907effffffffffffffffffffffffffffffffffffffffffffffffffffffffffffff1916908160001a9053507f7800000000000000000000000000000000000000000000000000000000000000816001815181106107f0576107ef6113d5565b5b60200101907effffffffffffffffffffffffffffffffffffffffffffffffffffffffffffff1916908160001a90535060006001856002610830919061135f565b61083a91906113a1565b90505b60018111156108da577f3031323334353637383961626364656600000000000000000000000000000000600f84166010811061087c5761087b6113d5565b5b1a60f81b828281518110610893576108926113d5565b5b60200101907effffffffffffffffffffffffffffffffffffffffffffffffffffffffffffff1916908160001a905350600483901c9250806108d390611404565b905061083d565b50600082146109225784846040517fe22e27eb00000000000000000000000000000000000000000000000000000000815260040161091992919061142d565b60405180910390fd5b809250505092915050565b6000604051905090565b600080fd5b600080fd5b6000819050919050565b61095481610941565b811461095f57600080fd5b50565b6000813590506109718161094b565b92915050565b60006020828403121561098d5761098c610937565b5b600061099b84828501610962565b91505092915050565b600081519050919050565b600082825260208201905092915050565b60005b838110156109de5780820151818401526020810190506109c3565b60008484015250505050565b6000601f19601f8301169050919050565b6000610a06826109a4565b610a1081856109af565b9350610a208185602086016109c0565b610a29816109ea565b840191505092915050565b6000819050919050565b610a4781610a34565b82525050565b60006060820190508181036000830152610a6781866109fb565b90508181036020830152610a7b81856109fb565b9050610a8a6040830184610a3e565b949350505050565b600080fd5b600080fd5b7f4e487b7100000000000000000000000000000000000000000000000000000000600052604160045260246000fd5b610ad4826109ea565b810181811067ffffffffffffffff82111715610af357610af2610a9c565b5b80604052505050565b6000610b0661092d565b9050610b128282610acb565b919050565b600067ffffffffffffffff821115610b3257610b31610a9c565b5b610b3b826109ea565b9050602081019050919050565b82818337600083830152505050565b6000610b6a610b6584610b17565b610afc565b905082815260208101848484011115610b8657610b85610a97565b5b610b91848285610b48565b509392505050565b600082601f830112610bae57610bad610a92565b5b8135610bbe848260208601610b57565b91505092915050565b60008060408385031215610bde57610bdd610937565b5b600083013567ffffffffffffffff811115610bfc57610bfb61093c565b5b610c0885828601610b99565b925050602083013567ffffffffffffffff811115610c2957610c2861093c565b5b610c3585828601610b99565b9150509250929050565b610c4881610941565b82525050565b6000602082019050610c636000830184610c3f565b92915050565b60008060408385031215610c8057610c7f610937565b5b6000610c8e85828601610962565b925050602083013567ffffffffffffffff811115610caf57610cae61093c565b5b610cbb85828601610b99565b9150509250929050565b7f4e487b7100000000000000000000000000000000000000000000000000000000600052602260045260246000fd5b60006002820490506001821680610d0c57607f821691505b602082108103610d1f57610d1e610cc5565b5b50919050565b600081905092915050565b6000610d3b826109a4565b610d458185610d25565b9350610d558185602086016109c0565b80840191505092915050565b6000819050919050565b610d7c610d7782610a34565b610d61565b82525050565b6000610d8e8286610d30565b9150610d9a8285610d30565b9150610da68284610d6b565b602082019150819050949350505050565b7f495020616c726561647920726567697374657265640000000000000000000000600082015250565b6000610ded6015836109af565b9150610df882610db7565b602082019050919050565b60006020820190508181036000830152610e1c81610de0565b9050919050565b60008190508160005260206000209050919050565b60006020601f8301049050919050565b600082821b905092915050565b600060088302610e857fffffffffffffffffffffffffffffffffffffffffffffffffffffffffffffffff82610e48565b610e8f8683610e48565b95508019841693508086168417925050509392505050565b6000819050919050565b6000610ecc610ec7610ec284610a34565b610ea7565b610a34565b9050919050565b6000819050919050565b610ee683610eb1565b610efa610ef282610ed3565b848454610e55565b825550505050565b600090565b610f0f610f02565b610f1a818484610edd565b505050565b5b81811015610f3e57610f33600082610f07565b600181019050610f20565b5050565b601f821115610f8357610f5481610e23565b610f5d84610e38565b81016020851015610f6c578190505b610f80610f7885610e38565b830182610f1f565b50505b505050565b600082821c905092915050565b6000610fa660001984600802610f88565b1980831691505092915050565b6000610fbf8383610f95565b9150826002028217905092915050565b610fd8826109a4565b67ffffffffffffffff811115610ff157610ff0610a9c565b5b610ffb8254610cf4565b611006828285610f42565b600060209050601f8311600181146110395760008415611027578287015190505b6110318582610fb3565b865550611099565b601f19841661104786610e23565b60005b8281101561106f5784890151825560018201915060208501945060208101905061104a565b8683101561108c5784890151611088601f891682610f95565b8355505b6001600288020188555050505b505050505050565b7f4950206e6f742072656769737465726564000000000000000000000000000000600082015250565b60006110d76011836109af565b91506110e2826110a1565b602082019050919050565b60006020820190508181036000830152611106816110ca565b9050919050565b600073ffffffffffffffffffffffffffffffffffffffff82169050919050565b60006111388261110d565b9050919050565b60008160601b9050919050565b60006111578261113f565b9050919050565b60006111698261114c565b9050919050565b61118161117c8261112d565b61115e565b82525050565b60006111938284611170565b60148201915081905092915050565b600081546111af81610cf4565b6111b98186610d25565b945060018216600081146111d457600181146111e95761121c565b60ff198316865281151582028601935061121c565b6111f285610e23565b60005b83811015611214578154818901526001820191506020810190506111f5565b838801955050505b50505092915050565b600061123182846111a2565b915081905092915050565b7f4e6f7420746865206f776e65723a2073656e6465723d00000000000000000000600082015250565b6000611272601683610d25565b915061127d8261123c565b601682019050919050565b7f2c206f776e65723d000000000000000000000000000000000000000000000000600082015250565b60006112be600883610d25565b91506112c982611288565b600882019050919050565b60006112df82611265565b91506112eb8285610d30565b91506112f6826112b1565b915061130282846111a2565b91508190509392505050565b6000602082019050818103600083015261132881846109fb565b905092915050565b7f4e487b7100000000000000000000000000000000000000000000000000000000600052601160045260246000fd5b600061136a82610a34565b915061137583610a34565b925082820261138381610a34565b9150828204841483151761139a57611399611330565b5b5092915050565b60006113ac82610a34565b91506113b783610a34565b92508282019050808211156113cf576113ce611330565b5b92915050565b7f4e487b7100000000000000000000000000000000000000000000000000000000600052603260045260246000fd5b600061140f82610a34565b91506000820361142257611421611330565b5b600182039050919050565b60006040820190506114426000830185610a3e565b61144f6020830184610a3e565b939250505056fea264697066735822122001926d430f60f50dd55332bca19fe678ab7e047e949a5f37327504030939c7d364736f6c63430008140033",
  "linkReferences": {},
  "deployedLinkReferences": {}
}